{"abi":[{"type":"constructor","inputs":[{"name":"_poolManager","type":"address","internalType":"contract IPoolManager"}],"stateMutability":"nonpayable"},{"type":"function","name":"getHookPermissions","inputs":[],"outputs":[{"name":"","type":"tuple","internalType":"struct Hooks.Permissions","components":[{"name":"beforeInitialize","type":"bool","internalType":"bool"},{"name":"afterInitialize","type":"bool","internalType":"bool"},{"name":"beforeAddLiquidity","type":"bool","internalType":"bool"},{"name":"afterAddLiquidity","type":"bool","internalType":"bool"},{"name":"beforeRemoveLiquidity","type":"bool","internalType":"bool"},{"name":"afterRemoveLiquidity","type":"bool","internalType":"bool"},{"name":"beforeSwap","type":"bool","internalType":"bool"},{"name":"afterSwap","type":"bool","internalType":"bool"},{"name":"beforeDonate","type":"bool","internalType":"bool"},{"name":"afterDonate","type":"bool","internalType":"bool"},{"name":"beforeSwapReturnDelta","type":"bool","internalType":"bool"},{"name":"afterSwapReturnDelta","type":"bool","internalType":"bool"},{"name":"afterAddLiquidityReturnDelta","type":"bool","internalType":"bool"},{"name":"afterRemoveLiquidityReturnDelta","type":"bool","internalType":"bool"}]}],"stateMutability":"pure"},{"type":"function","name":"msgSender","inputs":[],"outputs":[{"name":"","type":"address","internalType":"address"}],"stateMutability":"view"},{"type":"function","name":"poolManager","inputs":[],"outputs":[{"name":"","type":"address","internalType":"contract IPoolManager"}],"stateMutability":"view"},{"type":"function","name":"unlockCallback","inputs":[{"name":"data","type":"bytes","internalType":"bytes"}],"outputs":[{"name":"","type":"bytes","internalType":"bytes"}],"stateMutability":"nonpayable"},{"type":"error","name":"InputLengthMismatch","inputs":[]},{"type":"error","name":"NotPoolManager","inputs":[]},{"type":"error","name":"UnsupportedAction","inputs":[{"name":"action","type":"uint256","internalType":"uint256"}]}],"bytecode":{"object":"0x60a060405234801561000f575f80fd5b506040516109a73803806109a7833981810160405281019061003191906100e0565b8080808073ffffffffffffffffffffffffffffffffffffffff1660808173ffffffffffffffffffffffffffffffffffffffff16815250505050505061010b565b5f80fd5b5f73ffffffffffffffffffffffffffffffffffffffff82169050919050565b5f61009e82610075565b9050919050565b5f6100af82610094565b9050919050565b6100bf816100a5565b81146100c9575f80fd5b50565b5f815190506100da816100b6565b92915050565b5f602082840312156100f5576100f4610071565b5b5f610102848285016100cc565b91505092915050565b60805161087e6101295f395f818160dc0152610202015261087e5ff3fe608060405234801561000f575f80fd5b506004361061004a575f3560e01c806391dd73461461004e578063c4e833ce1461007e578063d737d0c71461009c578063dc4c90d3146100ba575b5f80fd5b610068600480360381019061006391906104b4565b6100d8565b604051610075919061056f565b60405180910390f35b610086610171565b60405161009391906106c7565b60405180910390f35b6100a46101f9565b6040516100b19190610720565b60405180910390f35b6100c2610200565b6040516100cf9190610794565b60405180910390f35b60607f000000000000000000000000000000000000000000000000000000000000000073ffffffffffffffffffffffffffffffffffffffff163373ffffffffffffffffffffffffffffffffffffffff161461015f576040517fae18210a00000000000000000000000000000000000000000000000000000000815260040160405180910390fd5b6101698383610224565b905092915050565b6101796103ce565b604051806101c001604052806001151581526020015f151581526020015f151581526020015f151581526020015f151581526020015f151581526020015f151581526020015f151581526020015f151581526020015f151581526020015f151581526020015f151581526020015f151581526020015f1515815250905090565b5f30905090565b7f000000000000000000000000000000000000000000000000000000000000000081565b6060365f365f6102348787610263565b935093509350935061024884848484610312565b60405180602001604052805f81525094505050505092915050565b365f365f604086351860608701945063ffffffff6040880135169350606063ffffffe0601f86011601806020890135188217915080880163ffffffff81351693506020810194508360051b805f5b828110156102e8578088013582811887179650808901602063ffffffe0601f833501160180850194505050506020810190506102b1565b508087018b8b011085171561030457633b99b53d5f526004601cfd5b505050505092959194509250565b5f848490509050828290508114610355576040517faaad13f700000000000000000000000000000000000000000000000000000000815260040160405180910390fd5b5f5b818110156103c1575f868683818110610373576103726107ad565b5b9050013560f81c60f81b60f81c60ff1690506103b38186868581811061039c5761039b6107ad565b5b90506020028101906103ae91906107e6565b6103c9565b508080600101915050610357565b505050505050565b505050565b604051806101c001604052805f151581526020015f151581526020015f151581526020015f151581526020015f151581526020015f151581526020015f151581526020015f151581526020015f151581526020015f151581526020015f151581526020015f151581526020015f151581526020015f151581525090565b5f80fd5b5f80fd5b5f80fd5b5f80fd5b5f80fd5b5f8083601f84011261047457610473610453565b5b8235905067ffffffffffffffff81111561049157610490610457565b5b6020830191508360018202830111156104ad576104ac61045b565b5b9250929050565b5f80602083850312156104ca576104c961044b565b5b5f83013567ffffffffffffffff8111156104e7576104e661044f565b5b6104f38582860161045f565b92509250509250929050565b5f81519050919050565b5f82825260208201905092915050565b8281835e5f83830152505050565b5f601f19601f8301169050919050565b5f610541826104ff565b61054b8185610509565b935061055b818560208601610519565b61056481610527565b840191505092915050565b5f6020820190508181035f8301526105878184610537565b905092915050565b5f8115159050919050565b6105a38161058f565b82525050565b6101c082015f8201516105be5f85018261059a565b5060208201516105d1602085018261059a565b5060408201516105e4604085018261059a565b5060608201516105f7606085018261059a565b50608082015161060a608085018261059a565b5060a082015161061d60a085018261059a565b5060c082015161063060c085018261059a565b5060e082015161064360e085018261059a565b5061010082015161065861010085018261059a565b5061012082015161066d61012085018261059a565b5061014082015161068261014085018261059a565b5061016082015161069761016085018261059a565b506101808201516106ac61018085018261059a565b506101a08201516106c16101a085018261059a565b50505050565b5f6101c0820190506106db5f8301846105a9565b92915050565b5f73ffffffffffffffffffffffffffffffffffffffff82169050919050565b5f61070a826106e1565b9050919050565b61071a81610700565b82525050565b5f6020820190506107335f830184610711565b92915050565b5f819050919050565b5f61075c610757610752846106e1565b610739565b6106e1565b9050919050565b5f61076d82610742565b9050919050565b5f61077e82610763565b9050919050565b61078e81610774565b82525050565b5f6020820190506107a75f830184610785565b92915050565b7f4e487b71000000000000000000000000000000000000000000000000000000005f52603260045260245ffd5b5f80fd5b5f80fd5b5f80fd5b5f8083356001602003843603038112610802576108016107da565b5b80840192508235915067ffffffffffffffff821115610824576108236107de565b5b6020830192506001820236038313156108405761083f6107e2565b5b50925092905056fea2646970667358221220bffb9d43ce1f37410163648c5d3a508d173f2042f04a2af7322dcf283e1494c964736f6c634300081a0033","linkReferences":{}},"methodIdentifiers":{"getHookPermissions()":"c4e833ce","msgSender()":"d737d0c7","poolManager()":"dc4c90d3","unlockCallback(bytes)":"91dd7346"},"id":28}